{
  "contractName": "MyToken",
  "abi": [
    {
      "constant": true,
      "inputs": [],
      "name": "totalSupply",
      "outputs": [
        {
          "name": "",
          "type": "uint256"
        }
      ],
      "payable": false,
      "stateMutability": "view",
      "type": "function"
    },
    {
      "constant": true,
      "inputs": [
        {
          "name": "",
          "type": "address"
        }
      ],
      "name": "balanceOf",
      "outputs": [
        {
          "name": "",
          "type": "uint256"
        }
      ],
      "payable": false,
      "stateMutability": "view",
      "type": "function"
    },
    {
      "inputs": [
        {
          "name": "_initialSupply",
          "type": "uint256"
        }
      ],
      "payable": false,
      "stateMutability": "nonpayable",
      "type": "constructor"
    }
  ],
  "bytecode": "0x608060405234801561001057600080fd5b506040516020806101a28339810180604052810190808051906020019092919050505080600160003373ffffffffffffffffffffffffffffffffffffffff1673ffffffffffffffffffffffffffffffffffffffff1681526020019081526020016000208190555080600081905550506101148061008e6000396000f3006080604052600436106049576000357c0100000000000000000000000000000000000000000000000000000000900463ffffffff16806318160ddd14604e57806370a08231146076575b600080fd5b348015605957600080fd5b50606060ca565b6040518082815260200191505060405180910390f35b348015608157600080fd5b5060b4600480360381019080803573ffffffffffffffffffffffffffffffffffffffff16906020019092919050505060d0565b6040518082815260200191505060405180910390f35b60005481565b600160205280600052604060002060009150905054815600a165627a7a723058202c53d9dc417e8a0e7546504a807b53d80a057f94faa758f74aea545b06f223490029",
  "source": "pragma solidity ^0.4.23;\r\n\r\ncontract MyToken {\r\n\r\n    uint256 public totalSupply;\r\n    mapping(address=>uint256) public balanceOf;\r\n\r\n    constructor(uint256 _initialSupply) public{\r\n        balanceOf[msg.sender]=_initialSupply;\r\n        totalSupply = _initialSupply;\r\n    }\r\n\r\n\r\n}\r\n",
  "sourcePath": "C:\\Users\\mchor\\Documents\\Blockchain\\mytoken\\contracts\\MyToken.sol",
  "compiler": {
    "name": "solc",
    "version": "0.4.24+commit.e67f0147.Emscripten.clang"
  },
  "schemaVersion": "2.0.1",
  "updatedAt": "2018-11-18T10:21:01.769Z"
}